:020000040800F2
:10000000B007022099020008A5130008FB110008A0
:10001000A113000849030008411700080000000070
:100020000000000000000000000000008114000833
:10003000C503000800000000E1130008391500089E
:10004000B3020008B3020008B3020008B3020008BC
:10005000B3020008B3020008B3020008B3020008AC
:10006000B3020008B3020008B3020008B30200089C
:10007000B3020008B3020008B3020008B30200088C
:10008000B3020008B3020008B3020008B30200087C
:10009000B3020008B3020008B3020008B30200086C
:1000A000B3020008B3020008B3020008B30200085C
:1000B000B3020008B3020008B3020008B30200084C
:1000C000B3020008B3020008B3020008B30200083C
:1000D000B3020008F1160008B3020008B3020008DA
:1000E000B3020008B3020008B3020008B30200081C
:1000F000B3020008B3020008B3020008B30200080C
:10010000B3020008B3020008B3020008B3020008FB
:10011000B3020008B3020008B3020008B3020008EB
:10012000B3020008B3020008B3020008B3020008DB
:10013000B3020008B3020008B3020008B3020008CB
:10014000B3020008B3020008B3020008B3020008BB
:10015000B3020008B3020008B3020008B3020008AB
:10016000B3020008B3020008B3020008B30200089B
:10017000B3020008B3020008B30200080000000048
:10018000B3020008B3020008B3020008B30200087B
:10019000B3020008B3020008B3020008B30200086B
:1001A000B3020008B3020008B3020008B30200085B
:1001B000B3020008B3020008B3020008B30200084B
:1001C000B3020008B302000800000000B3020008F8
:1001D000B3020008B3020008B3020008B30200082B
:1001E000B3020008B3020008B3020008B30200081B
:1001F000B3020008B302000800F002F800F03CF877
:100200000AA090E8000C82448344AAF10107DA4571
:1002100001D100F031F8AFF2090EBAE80F0013F087
:10022000010F18BFFB1A43F0010318473C170000E9
:100230005C170000103A24BF78C878C1FAD852077A
:1002400024BF30C830C144BF04680C607047000050
:100250000023002400250026103A28BF78C1FBD8CF
:10026000520728BF30C148BF0B6070471FB501F06F
:1002700069FB1FBD10B510BD00F033F81146FFF744
:10028000F5FF01F091FA00F051F803B4FFF7F2FF27
:1002900003BC01F057FA00000948804709480047AD
:1002A000FEE7FEE7FEE7FEE7FEE7FEE7FEE7FEE726
:1002B000FEE7FEE704480549054A064B7047000083
:1002C00041150008F9010008B0010220B007022022
:1002D000B0030220B0030220704770477047704798
:1002E0007047754600F02CF8AE4605006946534647
:1002F00020F00700854618B020B5FFF7DBFFBDE80A
:1003000020404FF000064FF000074FF000084FF07C
:10031000000B21F00701AC46ACE8C009ACE8C0090D
:10032000ACE8C009ACE8C0098D46704710B504467A
:10033000AFF300802046BDE81040FFF7A6BF0000E5
:10034000004870474C01022000BFFEE710B500BF17
:1003500000BF00BF00BF00BFBFF34F8F00BF00BF93
:1003600000BF00BF00BF00BFBFF36F8F00BF00BF63
:1003700000BF0020114908601148006840F40030B7
:100380000F49086000BF00BF00BFBFF34F8F00BF21
:1003900000BF00BF00BF00BF00BFBFF36F8F00BF33
:1003A00000BF00BF00BF01F01DF804484C300068DA
:1003B00040F0040001494C31086010BD50EF00E0EE
:1003C00014ED00E07047014691F83500022803D093
:1003D0008020486501207047052081F835000868B5
:1003E000006820F001000A6810600020F3E70000B8
:1003F000F8B502460B46002100250024002000BF6E
:10040000E4E0012606FA01F51E6806EA0504AC429E
:1004100071D15E68022E02D05E68122E13D1CF0811
:1004200002F1200656F827004E07F70E0F26BE40B1
:10043000B0434F07FF0E1E69BE403043CF0802F1A4
:10044000200646F8270010684F000326BE40B04340
:100450001E7906F003064F00BE40304310605E6810
:10046000012E08D05E68022E05D05E68112E02D0E3
:100470005E68122E13D190684F000326BE40B04331
:100480004F00DE68BE4030439060506801268E40C9
:10049000B0431E79C6F300168E4030435060D068DA
:1004A0004F000326BE40B0434F009E68BE4030431D
:1004B000D0605E6806F08056B6F1805FA8D100BFBC
:1004C000444E366846F48046424F3E603E463668AB
:1004D00006F48046009600BF00BF3F4E8F0856F8D6
:1004E00027008E07370F0F26BE40B0433B4EB24267
:1004F00002D100262EE068E0394EB24201D1012639
:1005000028E0384EB24201D1022623E0364EB242F4
:1005100001D103261EE0354EB24201D1042619E076
:10052000334EB24201D1052614E0324EB24201D11F
:1005300006260FE0304EB24201D107260AE02F4EC8
:10054000B24201D1082605E02D4EB24201D1092662
:1005500000E00A268F073F0FBE4030431E4E8F0833
:1005600046F82700274E3068A0435E6806F48036C0
:10057000B6F5803F00D12043224E3060361D3068F2
:10058000A0435E6806F40036B6F5003F00D1204374
:100590001C4E361D3060361D3068A0435E6806F480
:1005A0008016B6F5801F00D12043164E0836306005
:1005B000361D3068A0435E6806F40016B6F5001FCD
:1005C00000D120430F4E0C363060491C1029FFF437
:1005D00018AFF8BD4438024008380140000002401E
:1005E0000004024000080240000C024000100240DB
:1005F0000014024000180240001C0240002002408B
:1006000000240240003C0140024613690B400BB13C
:10061000012000E0002070470AB1816101E00B0475
:100620008361704701480068704700001000022095
:1006300002480068401C0149086070471000022011
:1006400010B50848006840F40070064908600520AD
:1006500000F05EF80F2000F007F800F019F8002015
:1006600010BD0000003C024070B504460748006819
:100670004FF47A71B0FBF1F5284600F041FC0022FE
:100680002146501E00F005F8002070BD0000022039
:1006900070472DE9F05F80460D461646002700F0B2
:1006A00083FE074639462A46334601F00700C0F16B
:1006B000070ABAF1040F02D94FF0040A01E0C0F1B1
:1006C000070AD14600F1040ABAF1070F02D24FF02F
:1006D000000A01E0A0F1030AD4464FF0010A0AFA29
:1006E00009FAAAF1010A0AEA020A0AFA0CFA4FF018
:1006F000010B0BFA0CFBABF1010B0BEA030B4AEA03
:100700000B042146404600F057FEBDE8F09F000074
:1007100000BF00F00702064B19684FF6FF031940AF
:10072000044B0B4343EA0221014B196000BF7047A1
:100730000CED00E00000FA0538B5002400BF2048A9
:10074000006840F080501E4908600846006800F0CC
:100750008050009000BF00BF1A48006840F480300D
:1007600018490860FFF75EFF044607E0FFF75AFFED
:10077000001BB0F57A7F01D9032038BD11484068CD
:1007800000F48030B0F5803FF0D10E48006840F4AE
:1007900000300C490860FFF745FF044607E0FFF70B
:1007A00041FF001BB0F57A7F01D90320E5E705483A
:1007B000406800F40030B0F5003FF0D10020DCE7E5
:1007C000403802400070004070B504460D460026D7
:1007D0006648006800F00F00A8420ED26348006827
:1007E00020F00F002843614908600846006800F0C7
:1007F0000F00A84201D0012070BD207800F0020057
:10080000022807D15A48006820F0F000A168084388
:1008100057490860207800F00100002860D0606827
:10082000012807D1524808380068C0F34040A0B9F9
:100830000120E1E76068022807D14D4808380068C8
:10084000C0F3406048B90120D6E74948083800683D
:10085000C0F3400008B90120CEE74548006820F009
:1008600003006168084342490860FFF7DBFE064663
:100870006068012810D108E0FFF7D4FE801B41F228
:100880008831884201D90320B6E73948006800F072
:100890000C000428F0D123E06068022810D108E0A1
:1008A000FFF7C0FE801B41F28831884201D9032046
:1008B000A2E72F48006800F00C000828F0D10FE0F4
:1008C00008E0FFF7AFFE801B41F28831884201D972
:1008D000032091E72648006800F00C000028F0D1C2
:1008E0002248006800F00F00A8420ED91F48006897
:1008F00020F00F0028431D4908600846006800F0FA
:100900000F00A84201D0012076E7207800F0040013
:10091000042807D11648006820F4E050E168084335
:1009200013490860207800F00800082808D1104812
:10093000006820F46040216940EAC1000C49086069
:1009400000F01CF80A49096801F0F001F02292FA5F
:10095000A2F2B2FA82F2D140064A515CC84006497E
:1009600008600F20FFF780FE002045E7003C0240B2
:10097000083802404E1900080000022070B500211E
:10098000002200230020274C246804F00C0424B12A
:10099000042C04D0082C41D103E0234840E0234834
:1009A0003EE0204C241F246804F03F011D4C241F0E
:1009B000246804F4800484B11C4CB4FBF1F5194C98
:1009C000241F246847F6C076344096FAA6F6B6FA95
:1009D00086F6F44005FB04F20FE0134CB4FBF1F58E
:1009E000104C241F246847F6C076344096FAA6F6C9
:1009F000B6FA86F6F44005FB04F20A4C241F24687C
:100A000004F440344FF4403595FAA5F5B5FA85F570
:100A1000EC40641C6300B2FBF3F001E0024800BF4D
:100A200000BF70BD083802400024F40040787D010A
:100A300038B504460025207800F00100002871D068
:100A4000FE48006800F00C0004280DD0FB48006848
:100A500000F00C00082813D1F848001F006800F4CB
:100A60008000B0F5800F0BD1F44808380068C0F35F
:100A70004040002869D06068002866D1012038BD58
:100A800000BF6068B0F5803F08D1EC4808380068C6
:100A900040F48030E949083908602EE0606868B9A0
:100AA000E6480838006820F48030E44908390860D6
:100AB0000846006820F4802008601EE06068B0F5F9
:100AC000A02F0DD1DD480838006840F48020DB49B4
:100AD000083908600846006840F4803008600CE07F
:100AE000D6480838006820F48030D44908390860B6
:100AF0000846006820F48020086000BF606890B15C
:100B0000FFF790FD054606E0FFF78CFD401B6428CB
:100B100001D90320B3E7C94808380068C0F3404052
:100B20000028F1D011E0FFF77DFD054606E0FFF754
:100B300079FD401B642801D90320A0E7BF4808388D
:100B40000068C0F340400028F1D1207800F0020096
:100B5000022873D1B948006800F00C0058B1B748BA
:100B6000006800F00C00082821D1B448001F00687C
:100B700000F48000D8B9B14808380068C0F34000DC
:100B800020B1E068012801D0012078E7AB4808389F
:100B9000006820F0F800F82292FAA2F2B2FA82F28B
:100BA000216991400843A5490839086046E0E0689A
:100BB00050B3A2480838006840F001009F49083946
:100BC0000860FFF72FFD054606E0FFF72BFD401BF1
:100BD000022801D9032052E7984808380068C0F37A
:100BE00040000028F1D095480838006820F0F8004F
:100BF000F82292FAA2F2B2FA82F2216991400843F5
:100C00008E490839086019E08C480838006820F0DF
:100C100001008A4908390860FFF704FD054606E02F
:100C2000FFF700FD401B022801D9032027E7834876
:100C300008380068C0F340000028F1D1207800F0A7
:100C40000800082836D16069D0B17C486C30006853
:100C500040F0010079496C310860FFF7E3FC05467C
:100C600006E0FFF7DFFC401B022801D9032006E75E
:100C700072486C300068C0F340000028F1D019E0E1
:100C80006E486C30006820F001006C496C310860DF
:100C9000FFF7C8FC054606E0FFF7C4FC401B02282E
:100CA00001D90320EBE665486C300068C0F34000D2
:100CB0000028F1D1207800F00400042871D100BF91
:100CC0005E483830006840F080505C493831086038
:100CD0000846006800F08050009000BF00BF5848F0
:100CE000006840F4807056490860FFF79BFC054699
:100CF00006E0FFF797FC401B642801D90320BEE6FD
:100D00004F48006800F480700028F2D000BFA0684F
:100D1000012808D149486830006840F0010047497F
:100D2000683108602DE0A06868B944486830006800
:100D300020F001004149683108600846006820F051
:100D4000040008601DE0A06805280DD13B4868300C
:100D5000006840F0040039496831086008460068BE
:100D600040F0010008600CE034486830006820F072
:100D700001003249683108600846006820F004002C
:100D8000086000BFA068A8B1FFF74CFC054609E069
:100D9000FFF748FC401B41F28831884202D903200A
:100DA0006DE61BE0254868300068C0F3400000286D
:100DB000EED013E0FFF736FC054608E0FFF732FC03
:100DC000401B41F28831884201D9032057E61B4875
:100DD00068300068C0F340000028EFD1A06988B3F4
:100DE0001648006800F00C00082873D0A06902289B
:100DF00064D112480838006820F080700F49083923
:100E00000860FFF70FFC054606E0FFF70BFC401BF0
:100E1000022801D9032032E6084808380068C0F3E8
:100E200040600028F1D1D4E90701084347F6C072B9
:100E300092FAA2F2B2FA82F2616A04E00838024041
:100E40000070004058E0914008430122A16AC2EBC3
:100E500051014FF4403292FAA2F2B2FA82F291407A
:100E600008434FF0706292FAA2F2B2FA82F2E16A9B
:100E7000914008434FF0E04292FAA2F2B2FA82F2B5
:100E8000216B914008431D490860081F006840F02D
:100E90008070091F0860FFF7C5FB054606E0FFF7F5
:100EA000C1FB401B022801D90320E8E51348001FBD
:100EB0000068C0F340600028F1D01DE00F48001F1B
:100EC000006820F080700D49091F0860FFF7AAFB39
:100ED000054607E00EE0FFF7A5FB401B022801D9FD
:100EE0000320CCE50548001F0068C0F340600028DF
:100EF000F1D101E00120C2E50020C0E50438024044
:100F000070B504462546681EB0F1807F01D30120EC
:100F10000FE0681E4FF0E02148610F214FF0FF30D5
:100F200000F04AFA00204FF0E021886107200861B4
:100F3000002070BD704701460022002391F869200F
:100F400091F86A3042EA0300704700002DE9F04151
:100F500004462068C569206806682068876805F02F
:100F60000F08B8F1000F0AD105F0200038B106F0E3
:100F7000200020B1204600F041FBBDE8F081B8F12F
:100F8000000F79D040F201103840002874D005F0ED
:100F9000010048B106F4807030B101202168086278
:100FA000E06E40F00100E06605F0020048B107F095
:100FB000010030B1022021680862E06E40F00400B8
:100FC000E06605F0040048B107F0010030B10420EC
:100FD00021680862E06E40F00200E06605F008005B
:100FE00060B106F0200010B907F0010030B1082010
:100FF00021680862E06E40F00800E066E06E58B3D9
:1010000005F0200028B106F0200010B1204600F0C5
:10101000F5FAE06E00F0080020B92068806800F062
:10102000400018B3204600F0C9FA2068806800F03C
:101030004000B8B12068806820F0400021688860D6
:10104000606E50B11748616E0865606EFFF7BBF9BE
:1010500010B1606E016D88470DE02046FFF76AFF12
:1010600009E009E02046FFF765FF04E02046FFF7AE
:1010700061FF0020E06680E705F0800030B106F0F7
:10108000800018B1204600F0FDFA76E705F0400038
:1010900030B106F0400018B1204600F09FFA6CE72E
:1010A00000BF6AE7A515000810B5034693F86A006B
:1010B00020285BD101B10AB9012010BD00BF93F80F
:1010C0006800012801D10220F7E7012083F86800B9
:1010D00000BF5965A3F85820A3F85A2000BF9868AC
:1010E000B0F5805F0AD1186920B940F2FF10A3F86B
:1010F0005C001CE0FF20A3F85C0018E0986848B989
:10110000186918B9FF20A3F85C0010E07F20A3F84D
:101110005C000CE09868B0F1805F08D1186918B9DC
:101120007F20A3F85C0002E03F20A3F85C0000BF32
:101130000020D866222083F86A0000BF002083F8D0
:10114000680000BF1868006840F480701C68206068
:101150001868806840F001001C68A060186800688A
:1011600040F020001C6820600020A6E70220A4E7D1
:101170001D4A0168914236D11C49098801F4004199
:1011800089BB1A49098801F4804171B1184909786D
:101190000A2903D00021154A118024E01349098847
:1011A00041F40041114A11801DE0114909780D29CF
:1011B00006D10E49098841F480410C4A118012E0A1
:1011C0000B490978094A1288C2F30D02094B995458
:1011D00006490988491C054A118011460988C72912
:1011E00001DD002111807047001001400C00022039
:1011F0000E00022014000220704700BFFEE700002E
:1012000000B587B000BF2748006840F004002549BA
:1012100008600846006800F00400019000BF00BFAD
:1012200000BF0846006840F080000860084600687B
:1012300000F08000019000BF00BF00BF08460068BA
:1012400040F0010008600846006800F001000190CD
:1012500000BF00BF002003900C20029001200490EA
:101260000320059002A91048FFF7C2F80020039060
:101270004FF400500290012004900320059002A931
:101280000A48FFF7B5F800200390012002900220E1
:1012900004900320059002A90548FFF7A9F807B0BC
:1012A00000BD000030380240001C0240000802402F
:1012B0000000024000B585B001200190032000909D
:1012C000012002900320039069460248FFF790F83E
:1012D00005B000BD0004024010B50446012C01D148
:1012E0002B4908702A48007898B308212948FFF74D
:1012F0008BF980B104212748FFF786F958B14FF4E4
:1013000000512548FFF780F928B101212348FFF754
:101310007BF901281ED10A2000F016FA00201C4992
:10132000087008211B48FFF76FF9012800D110BD94
:1013300004211848FFF768F9012801D10220F6E7D7
:101340004FF400511448FFF75FF901281ED1032024
:10135000EDE7FFE708210F48FFF756F9012815D1FF
:1013600004210C48FFF750F901280FD141030A4826
:10137000FFF74AF9012809D101210848FFF744F98C
:1013800020B90120024908700020D0E700BFCEE755
:101390000F000220001C0240000802400000024032
:1013A00000BFFEE77047000002480068C0F302205B
:1013B000704700000CED00E010B5002807DA0A07BE
:1013C000140E054A00F00F031B1FD45403E00A0754
:1013D000130E024A135410BD18ED00E000E400E0C3
:1013E0007047000010B50023234C236000BF00BFEE
:1013F00000BFBFF34F8F00BF00BF00BF231F18689F
:10140000C0F34E3100BFC0F3C90200BF43F6E07322
:1014100003EA41134FF0404404EA82742343174C1B
:10142000236000BF00BF131EA2F10102EED10B1E0C
:10143000A1F10101E7D100BF00BF00BFBFF34F8F93
:1014400000BF00BF00BF0C4B703B1B6843F48033F0
:10145000094C703C236000BF00BF00BFBFF34F8F3B
:1014600000BF00BF00BF00BF00BF00BFBFF36F8F52
:1014700000BF00BF00BF10BD84ED00E060EF00E0E2
:10148000704700002DE9F04194B0054688461646A5
:101490001F46002400BF2648006840F080502449C1
:1014A00008600846006800F08050019000BF00BF4F
:1014B00000BF2048006840F440401E4908600846CC
:1014C000006800F44040019000BF00BF0120079079
:1014D0000004089002200D9041050E91CDF83C804B
:1014E00010951196129707A8FFF7A2FA04460CB1BF
:1014F00000BFFEE7FFF720F904460CB100BFFEE78E
:101500000F20029002200390002004904FF4A0507E
:1015100005904FF480500690072102A8FFF754F978
:1015200004460CB100BFFEE714B0BDE8F081000036
:10153000403802400070004010B5FFF779F810BD48
:101540001448006840F470001249086012480068AE
:1015500040F001001049086000200F490831086080
:101560000D4800680D4908400B4908600C48091DEA
:101570000860081F006820F48020091F0860002010
:1015800005490C3108604FF000600249803908605D
:101590007047000088ED00E000380240FFFFF6FED3
:1015A0001030002470B50546AC6B0020A4F85A003A
:1015B000A4F852002046FFF7BDFC70BD0168096821
:1015C00021F49071026811600168896821F00101BD
:1015D00002689160202180F86A10704710B50446B7
:1015E0002068006820F0400021680860202084F80E
:1015F00069002046FFF700FE002010BD70B50446CC
:10160000B4F85C6094F86A00222833D1A068B0F581
:10161000805F0AD1206940B9656D2068406A30401A
:101620002880606D801C606507E02068406AF1B228
:101630000840626D511C61651070B4F85A00401E7C
:1016400080B2A4F85A0098B92068006820F490701D
:10165000216808602068806820F0010021688860A7
:10166000202084F86A002046FFF782FD002070BD2C
:101670000020FCE72068806940F00800216888614C
:101680000220F4E7014691F8690021282DD1B1F834
:10169000520068B90868006820F080000B68186084
:1016A0000868006840F040000B6818600020704730
:1016B0008868B0F5805F0BD1086948B9CA6C10889A
:1016C000C0F308000B689862C86C801CC86405E011
:1016D000CB6C581CC86418780B689862B1F852003B
:1016E000401EA1F852000020E1E70220DFE70000E1
:1016F00070B500240F4D1048FFF728FC00BF03E031
:10170000641CAC4200D904E00B48FFF714FC20280D
:10171000F6D100BF002403E0641CAC4200D906E00F
:10172000012206490448FFF7BFFC0028F4D100BF9E
:1017300070BD0000FFFF0100DC0002200E0002204F
:1017400000BFFEE700BF704730B50446002504E047
:101750004FF47A7000F004F86D1CA542F8D330BD48
:1017600070B5034600224FF0E02675690D4E3668CD
:1017700003FB06F44FF0E026B16910E04FF0E026DD
:10178000B06988420BD0884202D20E1A324402E07D
:101790002E1A0E4432440146A24200D300E0EDE787
:1017A00000BF70BD0400022008B5002601240125F9
:1017B000FEF7CCFDFEF744FF0923022219214FF466
:1017C000D870FFF75FFE00BF5C48006840F0020081
:1017D0005A4908600846006800F00200009000BF07
:1017E00000BFFFF767FDFFF70BFD2CB1012211468B
:1017F0005348FEF711FF04E0002201215048FEF794
:101800000BFF2DB1012202214D48FEF705FF04E038
:10181000002202214A48FEF7FFFE8EE00020FFF77B
:101820005BFD0646002E71D067D0012E04D0022E3B
:1018300021D0032E7DD13DE00CB9012000E0002035
:1018400004462CB1012211463D48FEF7E5FE04E0B6
:10185000002201213A48FEF7DFFE01252DB10122C9
:1018600002213748FEF7D8FE04E000220221344866
:10187000FEF7D2FE5DE00DB9012000E00020054634
:101880002DB1012202212E48FEF7C6FE04E00022FF
:1018900002212B48FEF7C0FE01242CB10122114683
:1018A0002748FEF7B9FE04E0002201212448FEF794
:1018B000B3FE3EE00DB9012000E0002005460CB962
:1018C000012000E0002004462CB1012211461C48F2
:1018D000FEF7A2FE04E0002201211948FEF79CFE5B
:1018E0002DB1012202211648FEF796FE04E00022E7
:1018F00002211348FEF790FE1BE00125012434B1BC
:10190000012211460E48FEF787FE05E012E0002294
:1019100001210B48FEF780FE2DB10122022108486B
:10192000FEF77AFE04E0002202210548FEF774FE6D
:1019300000BF02E03220FFF707FF6FE730380240B8
:10194000000402404FF04070E1EE100A70470000C2
:10195000000000000000010203040607080900005F
:1019600000000102030400008819000800000220A2
:1019700014000000340200089C1900081400022022
:101980009C070000500200080024F4000000000042
:0C1990000000000000000001000000004A
:04000005080001F9F5
:00000001FF
